{
  "contractName": "Auction",
  "abi": [
    {
      "inputs": [],
      "stateMutability": "nonpayable",
      "type": "constructor"
    },
    {
      "inputs": [],
      "name": "auction_finished",
      "outputs": [
        {
          "internalType": "uint256",
          "name": "",
          "type": "uint256"
        }
      ],
      "stateMutability": "view",
      "type": "function",
      "constant": true
    },
    {
      "inputs": [],
      "name": "highestBid",
      "outputs": [
        {
          "internalType": "uint256",
          "name": "",
          "type": "uint256"
        }
      ],
      "stateMutability": "view",
      "type": "function",
      "constant": true
    },
    {
      "inputs": [],
      "name": "highestBidder",
      "outputs": [
        {
          "internalType": "address",
          "name": "",
          "type": "address"
        }
      ],
      "stateMutability": "view",
      "type": "function",
      "constant": true
    },
    {
      "inputs": [
        {
          "internalType": "address",
          "name": "",
          "type": "address"
        }
      ],
      "name": "userBalances",
      "outputs": [
        {
          "internalType": "uint256",
          "name": "",
          "type": "uint256"
        }
      ],
      "stateMutability": "view",
      "type": "function",
      "constant": true
    },
    {
      "stateMutability": "payable",
      "type": "receive",
      "payable": true
    },
    {
      "inputs": [],
      "name": "bid",
      "outputs": [],
      "stateMutability": "payable",
      "type": "function",
      "payable": true
    },
    {
      "inputs": [],
      "name": "withdraw",
      "outputs": [],
      "stateMutability": "payable",
      "type": "function",
      "payable": true
    },
    {
      "inputs": [],
      "name": "canWithdraw",
      "outputs": [
        {
          "internalType": "bool",
          "name": "",
          "type": "bool"
        }
      ],
      "stateMutability": "view",
      "type": "function",
      "constant": true
    },
    {
      "inputs": [],
      "name": "getContractBalance",
      "outputs": [
        {
          "internalType": "uint256",
          "name": "",
          "type": "uint256"
        }
      ],
      "stateMutability": "view",
      "type": "function",
      "constant": true
    }
  ],
  "bytecode": "0x608060405234801561001057600080fd5b5033600360006101000a81548173ffffffffffffffffffffffffffffffffffffffff021916908373ffffffffffffffffffffffffffffffffffffffff160217905550600360009054906101000a900473ffffffffffffffffffffffffffffffffffffffff166000806101000a81548173ffffffffffffffffffffffffffffffffffffffff021916908373ffffffffffffffffffffffffffffffffffffffff160217905550600060018190555060006004819055506109b4806100d36000396000f3fe60806040526004361061007f5760003560e01c806391f901571161004e57806391f9015714610107578063990f6e1c14610132578063b51459fe1461015d578063d57bde791461018857610086565b80631998aeef1461008b57806326224c64146100955780633ccfd60b146100d25780636f9fb98a146100dc57610086565b3661008657005b600080fd5b6100936101b3565b005b3480156100a157600080fd5b506100bc60048036038101906100b791906106d7565b6103a2565b6040516100c9919061082c565b60405180910390f35b6100da6103ba565b005b3480156100e857600080fd5b506100f161066d565b6040516100fe919061082c565b60405180910390f35b34801561011357600080fd5b5061011c610675565b6040516101299190610796565b60405180910390f35b34801561013e57600080fd5b50610147610699565b604051610154919061082c565b60405180910390f35b34801561016957600080fd5b5061017261069f565b60405161017f91906107b1565b60405180910390f35b34801561019457600080fd5b5061019d6106bc565b6040516101aa919061082c565b60405180910390f35b60015434116101f7576040517f08c379a00000000000000000000000000000000000000000000000000000000081526004016101ee906107cc565b60405180910390fd5b600260003373ffffffffffffffffffffffffffffffffffffffff1673ffffffffffffffffffffffffffffffffffffffff168152602001908152602001600020543411156102c5573373ffffffffffffffffffffffffffffffffffffffff166108fc600260003373ffffffffffffffffffffffffffffffffffffffff1673ffffffffffffffffffffffffffffffffffffffff168152602001908152602001600020549081150290604051600060405180830381858888f193505050501580156102c3573d6000803e3d6000fd5b505b34600260003373ffffffffffffffffffffffffffffffffffffffff1673ffffffffffffffffffffffffffffffffffffffff168152602001908152602001600020819055506000600260003373ffffffffffffffffffffffffffffffffffffffff1673ffffffffffffffffffffffffffffffffffffffff16815260200190815260200160002054905060015481111561039f5780600181905550336000806101000a81548173ffffffffffffffffffffffffffffffffffffffff021916908373ffffffffffffffffffffffffffffffffffffffff1602179055505b50565b60026020528060005260406000206000915090505481565b6000600154116103ff576040517f08c379a00000000000000000000000000000000000000000000000000000000081526004016103f69061080c565b60405180910390fd5b60008054906101000a900473ffffffffffffffffffffffffffffffffffffffff1673ffffffffffffffffffffffffffffffffffffffff163373ffffffffffffffffffffffffffffffffffffffff16141561048e576040517f08c379a0000000000000000000000000000000000000000000000000000000008152600401610485906107ec565b60405180910390fd5b600360009054906101000a900473ffffffffffffffffffffffffffffffffffffffff1673ffffffffffffffffffffffffffffffffffffffff163373ffffffffffffffffffffffffffffffffffffffff161415610590573373ffffffffffffffffffffffffffffffffffffffff166108fc600260008060009054906101000a900473ffffffffffffffffffffffffffffffffffffffff1673ffffffffffffffffffffffffffffffffffffffff1673ffffffffffffffffffffffffffffffffffffffff168152602001908152602001600020549081150290604051600060405180830381858888f1935050505015801561058a573d6000803e3d6000fd5b5061066b565b60008054906101000a900473ffffffffffffffffffffffffffffffffffffffff1673ffffffffffffffffffffffffffffffffffffffff163373ffffffffffffffffffffffffffffffffffffffff161461066a573373ffffffffffffffffffffffffffffffffffffffff166108fc600260003373ffffffffffffffffffffffffffffffffffffffff1673ffffffffffffffffffffffffffffffffffffffff168152602001908152602001600020549081150290604051600060405180830381858888f19350505050158015610668573d6000803e3d6000fd5b505b5b565b600047905090565b60008054906101000a900473ffffffffffffffffffffffffffffffffffffffff1681565b60045481565b60008060015411156106b457600190506106b9565b600090505b90565b60015481565b6000813590506106d181610967565b92915050565b6000602082840312156106e957600080fd5b60006106f7848285016106c2565b91505092915050565b61070981610858565b82525050565b6107188161086a565b82525050565b600061072b602783610847565b9150610736826108a0565b604082019050919050565b600061074e601e83610847565b9150610759826108ef565b602082019050919050565b6000610771602983610847565b915061077c82610918565b604082019050919050565b61079081610896565b82525050565b60006020820190506107ab6000830184610700565b92915050565b60006020820190506107c6600083018461070f565b92915050565b600060208201905081810360008301526107e58161071e565b9050919050565b6000602082019050818103600083015261080581610741565b9050919050565b6000602082019050818103600083015261082581610764565b9050919050565b60006020820190506108416000830184610787565b92915050565b600082825260208201905092915050565b600061086382610876565b9050919050565b60008115159050919050565b600073ffffffffffffffffffffffffffffffffffffffff82169050919050565b6000819050919050565b7f596f7572206f66666572206973206c657373207468616e20746865206869676860008201527f6573742062696400000000000000000000000000000000000000000000000000602082015250565b7f48696768657374204269646465722063616e6e6f742077697468647261770000600082015250565b7f42696420697320657175616c20746f207a65726f2c206e6f7468696e6720746f60008201527f2077697468647261770000000000000000000000000000000000000000000000602082015250565b61097081610858565b811461097b57600080fd5b5056fea26469706673582212202221e7e6a544a4267d76e38b36d1a4b3099cde015e7f8cf8b6fa46b066ce9b3864736f6c63430008030033",
  "immutableReferences": {},
  "source": "//SPDX-License-Identifier: GPL-3.0\npragma solidity >= 0.7.0 <= 0.8.3;\n\ncontract Auction {\n    \n    address public highestBidder; // The highest bidder's address \n    uint public highestBid; // The amount of the highest bid  \n    mapping(address => uint) public  userBalances; // mapping for the amount to return \n    address owner;\n    uint public auction_finished;\n    \n    constructor() {\n        owner = msg.sender;\n        highestBidder = owner;\n        highestBid = 0;\n        auction_finished = 0;\n    }\n    \n    \n    modifier onlyOwner(){\n        require(msg.sender == owner,\"Not the owner\");\n        _;\n    }\n    \n    \n    function bid() public payable{\n        //Function to process bid\n        require(msg.value > highestBid,\"Your offer is less than the highest bid\");\n        if(msg.value > userBalances[msg.sender]){\n            payable(msg.sender).transfer(userBalances[msg.sender]);    \n        }\n        \n        userBalances[msg.sender] =  msg.value;\n        uint newBid = userBalances[msg.sender] ;\n        \n        if(newBid > highestBid){\n            highestBid = newBid;\n            highestBidder = msg.sender; \n        }\n    }\n    \n    function withdraw() public payable{\n        //Function to withdraw the ammount of bid to return\n   \n        \n        require(highestBid>0,\"Bid is equal to zero, nothing to withdraw\");\n        require(msg.sender != highestBidder,\"Highest Bidder cannot withdraw\");\n        \n        if (msg.sender == owner){\n             payable(msg.sender).transfer(userBalances[highestBidder]);\n            \n        } \n        else if (msg.sender != highestBidder) {\n            payable(msg.sender).transfer(userBalances[msg.sender]);   \n        }\n    } \n    \n\n    function canWithdraw () public view  returns(bool){\n        if(highestBid>0){\n            return true;\n        }\n        return false;\n    }\n    \n    function getContractBalance() public view returns(uint){\n        //Function to contract's balance\n        return(address(this).balance);\n    }\n    \n    receive() external payable{}\n    \n}\n",
  "sourcePath": "/home/dimi/Documents/AuctionApp/contracts/Auction.sol",
  "compiler": {
    "name": "solc",
    "version": "0.8.3+commit.8d00100c.Emscripten.clang"
  },
  "schemaVersion": "3.4.0",
  "updatedAt": "2021-05-23T12:00:48.615Z",
  "networkType": "ethereum",
  "devdoc": {
    "kind": "dev",
    "methods": {},
    "version": 1
  },
  "userdoc": {
    "kind": "user",
    "methods": {},
    "version": 1
  }
}